{
    "_format": "hh-sol-artifact-1",
    "contractName": "Staking",
    "sourceName": "contracts/Staking.sol",
    "abi": [
        {
            "inputs": [],
            "stateMutability": "nonpayable",
            "type": "constructor"
        },
        {
            "inputs": [
                {
                    "internalType": "address",
                    "name": "member",
                    "type": "address"
                }
            ],
            "name": "assignMember",
            "outputs": [],
            "stateMutability": "nonpayable",
            "type": "function"
        },
        {
            "inputs": [
                {
                    "internalType": "address",
                    "name": "",
                    "type": "address"
                }
            ],
            "name": "isMember",
            "outputs": [
                {
                    "internalType": "bool",
                    "name": "",
                    "type": "bool"
                }
            ],
            "stateMutability": "view",
            "type": "function"
        },
        {
            "inputs": [
                {
                    "internalType": "address",
                    "name": "",
                    "type": "address"
                },
                {
                    "internalType": "uint256",
                    "name": "",
                    "type": "uint256"
                }
            ],
            "name": "memberIdeas",
            "outputs": [
                {
                    "internalType": "string",
                    "name": "",
                    "type": "string"
                }
            ],
            "stateMutability": "view",
            "type": "function"
        },
        {
            "inputs": [],
            "name": "owner",
            "outputs": [
                {
                    "internalType": "address",
                    "name": "",
                    "type": "address"
                }
            ],
            "stateMutability": "view",
            "type": "function"
        },
        {
            "inputs": [
                {
                    "internalType": "address",
                    "name": "member",
                    "type": "address"
                }
            ],
            "name": "revokeMember",
            "outputs": [],
            "stateMutability": "nonpayable",
            "type": "function"
        },
        {
            "inputs": [],
            "name": "stake",
            "outputs": [],
            "stateMutability": "payable",
            "type": "function"
        },
        {
            "inputs": [
                {
                    "internalType": "address",
                    "name": "",
                    "type": "address"
                }
            ],
            "name": "stakes",
            "outputs": [
                {
                    "internalType": "uint256",
                    "name": "",
                    "type": "uint256"
                }
            ],
            "stateMutability": "view",
            "type": "function"
        },
        {
            "inputs": [
                {
                    "internalType": "string",
                    "name": "idea",
                    "type": "string"
                }
            ],
            "name": "submitIdea",
            "outputs": [],
            "stateMutability": "nonpayable",
            "type": "function"
        },
        {
            "inputs": [],
            "name": "withdraw",
            "outputs": [],
            "stateMutability": "nonpayable",
            "type": "function"
        }
    ],
    "bytecode": "0x608060405234801561001057600080fd5b50336000806101000a81548173ffffffffffffffffffffffffffffffffffffffff021916908373ffffffffffffffffffffffffffffffffffffffff160217905550611195806100606000396000f3fe6080604052600436106100865760003560e01c80638adf23b9116100595780638adf23b9146101125780638da5cb5b1461013b578063a230c52414610166578063a7ea88f7146101a3578063b5a820ed146101e057610086565b806316934fc41461008b5780633a4b66f1146100c85780633ccfd60b146100d25780636329b13f146100e9575b600080fd5b34801561009757600080fd5b506100b260048036038101906100ad91906108c5565b610209565b6040516100bf919061090b565b60405180910390f35b6100d0610221565b005b3480156100de57600080fd5b506100e7610315565b005b3480156100f557600080fd5b50610110600480360381019061010b91906108c5565b610483565b005b34801561011e57600080fd5b50610139600480360381019061013491906108c5565b61056c565b005b34801561014757600080fd5b50610150610655565b60405161015d9190610935565b60405180910390f35b34801561017257600080fd5b5061018d600480360381019061018891906108c5565b610679565b60405161019a919061096b565b60405180910390f35b3480156101af57600080fd5b506101ca60048036038101906101c591906109b2565b610699565b6040516101d79190610a82565b60405180910390f35b3480156101ec57600080fd5b5061020760048036038101906102029190610bd9565b610752565b005b60016020528060005260406000206000915090505481565b6000341015610265576040517f08c379a000000000000000000000000000000000000000000000000000000000815260040161025c90610c94565b60405180910390fd5b34600160003373ffffffffffffffffffffffffffffffffffffffff1673ffffffffffffffffffffffffffffffffffffffff16815260200190815260200160002060008282546102b49190610ce3565b925050819055506001600260003373ffffffffffffffffffffffffffffffffffffffff1673ffffffffffffffffffffffffffffffffffffffff16815260200190815260200160002060006101000a81548160ff021916908315150217905550565b6000600160003373ffffffffffffffffffffffffffffffffffffffff1673ffffffffffffffffffffffffffffffffffffffff1681526020019081526020016000205490506000811161039c576040517f08c379a000000000000000000000000000000000000000000000000000000000815260040161039390610d63565b60405180910390fd5b6000600160003373ffffffffffffffffffffffffffffffffffffffff1673ffffffffffffffffffffffffffffffffffffffff168152602001908152602001600020819055506000600260003373ffffffffffffffffffffffffffffffffffffffff1673ffffffffffffffffffffffffffffffffffffffff16815260200190815260200160002060006101000a81548160ff0219169083151502179055503373ffffffffffffffffffffffffffffffffffffffff166108fc829081150290604051600060405180830381858888f1935050505015801561047f573d6000803e3d6000fd5b5050565b60008054906101000a900473ffffffffffffffffffffffffffffffffffffffff1673ffffffffffffffffffffffffffffffffffffffff163373ffffffffffffffffffffffffffffffffffffffff1614610511576040517f08c379a000000000000000000000000000000000000000000000000000000000815260040161050890610df5565b60405180910390fd5b6001600260008373ffffffffffffffffffffffffffffffffffffffff1673ffffffffffffffffffffffffffffffffffffffff16815260200190815260200160002060006101000a81548160ff02191690831515021790555050565b60008054906101000a900473ffffffffffffffffffffffffffffffffffffffff1673ffffffffffffffffffffffffffffffffffffffff163373ffffffffffffffffffffffffffffffffffffffff16146105fa576040517f08c379a00000000000000000000000000000000000000000000000000000000081526004016105f190610df5565b60405180910390fd5b6000600260008373ffffffffffffffffffffffffffffffffffffffff1673ffffffffffffffffffffffffffffffffffffffff16815260200190815260200160002060006101000a81548160ff02191690831515021790555050565b60008054906101000a900473ffffffffffffffffffffffffffffffffffffffff1681565b60026020528060005260406000206000915054906101000a900460ff1681565b600360205281600052604060002081815481106106b557600080fd5b906000526020600020016000915091505080546106d190610e44565b80601f01602080910402602001604051908101604052809291908181526020018280546106fd90610e44565b801561074a5780601f1061071f5761010080835404028352916020019161074a565b820191906000526020600020905b81548152906001019060200180831161072d57829003601f168201915b505050505081565b600260003373ffffffffffffffffffffffffffffffffffffffff1673ffffffffffffffffffffffffffffffffffffffff16815260200190815260200160002060009054906101000a900460ff166107de576040517f08c379a00000000000000000000000000000000000000000000000000000000081526004016107d590610ec1565b60405180910390fd5b600360003373ffffffffffffffffffffffffffffffffffffffff1673ffffffffffffffffffffffffffffffffffffffff1681526020019081526020016000208190806001815401808255809150506001900390600052602060002001600090919091909150908161084f919061108d565b5050565b6000604051905090565b600080fd5b600080fd5b600073ffffffffffffffffffffffffffffffffffffffff82169050919050565b600061089282610867565b9050919050565b6108a281610887565b81146108ad57600080fd5b50565b6000813590506108bf81610899565b92915050565b6000602082840312156108db576108da61085d565b5b60006108e9848285016108b0565b91505092915050565b6000819050919050565b610905816108f2565b82525050565b600060208201905061092060008301846108fc565b92915050565b61092f81610887565b82525050565b600060208201905061094a6000830184610926565b92915050565b60008115159050919050565b61096581610950565b82525050565b6000602082019050610980600083018461095c565b92915050565b61098f816108f2565b811461099a57600080fd5b50565b6000813590506109ac81610986565b92915050565b600080604083850312156109c9576109c861085d565b5b60006109d7858286016108b0565b92505060206109e88582860161099d565b9150509250929050565b600081519050919050565b600082825260208201905092915050565b60005b83811015610a2c578082015181840152602081019050610a11565b60008484015250505050565b6000601f19601f8301169050919050565b6000610a54826109f2565b610a5e81856109fd565b9350610a6e818560208601610a0e565b610a7781610a38565b840191505092915050565b60006020820190508181036000830152610a9c8184610a49565b905092915050565b600080fd5b600080fd5b7f4e487b7100000000000000000000000000000000000000000000000000000000600052604160045260246000fd5b610ae682610a38565b810181811067ffffffffffffffff82111715610b0557610b04610aae565b5b80604052505050565b6000610b18610853565b9050610b248282610add565b919050565b600067ffffffffffffffff821115610b4457610b43610aae565b5b610b4d82610a38565b9050602081019050919050565b82818337600083830152505050565b6000610b7c610b7784610b29565b610b0e565b905082815260208101848484011115610b9857610b97610aa9565b5b610ba3848285610b5a565b509392505050565b600082601f830112610bc057610bbf610aa4565b5b8135610bd0848260208601610b69565b91505092915050565b600060208284031215610bef57610bee61085d565b5b600082013567ffffffffffffffff811115610c0d57610c0c610862565b5b610c1984828501610bab565b91505092915050565b7f5374616b6520616d6f756e74206d757374206265206e6f6e2d6e65676174697660008201527f6500000000000000000000000000000000000000000000000000000000000000602082015250565b6000610c7e6021836109fd565b9150610c8982610c22565b604082019050919050565b60006020820190508181036000830152610cad81610c71565b9050919050565b7f4e487b7100000000000000000000000000000000000000000000000000000000600052601160045260246000fd5b6000610cee826108f2565b9150610cf9836108f2565b9250828201905080821115610d1157610d10610cb4565b5b92915050565b7f4e6f207374616b6520746f207769746864726177000000000000000000000000600082015250565b6000610d4d6014836109fd565b9150610d5882610d17565b602082019050919050565b60006020820190508181036000830152610d7c81610d40565b9050919050565b7f4f6e6c79206f776e65722063616e20706572666f726d2074686973206163746960008201527f6f6e000000000000000000000000000000000000000000000000000000000000602082015250565b6000610ddf6022836109fd565b9150610dea82610d83565b604082019050919050565b60006020820190508181036000830152610e0e81610dd2565b9050919050565b7f4e487b7100000000000000000000000000000000000000000000000000000000600052602260045260246000fd5b60006002820490506001821680610e5c57607f821691505b602082108103610e6f57610e6e610e15565b5b50919050565b7f4f6e6c79206d656d626572732063616e207375626d6974206964656173000000600082015250565b6000610eab601d836109fd565b9150610eb682610e75565b602082019050919050565b60006020820190508181036000830152610eda81610e9e565b9050919050565b60008190508160005260206000209050919050565b60006020601f8301049050919050565b600082821b905092915050565b600060088302610f437fffffffffffffffffffffffffffffffffffffffffffffffffffffffffffffffff82610f06565b610f4d8683610f06565b95508019841693508086168417925050509392505050565b6000819050919050565b6000610f8a610f85610f80846108f2565b610f65565b6108f2565b9050919050565b6000819050919050565b610fa483610f6f565b610fb8610fb082610f91565b848454610f13565b825550505050565b600090565b610fcd610fc0565b610fd8818484610f9b565b505050565b5b81811015610ffc57610ff1600082610fc5565b600181019050610fde565b5050565b601f8211156110415761101281610ee1565b61101b84610ef6565b8101602085101561102a578190505b61103e61103685610ef6565b830182610fdd565b50505b505050565b600082821c905092915050565b600061106460001984600802611046565b1980831691505092915050565b600061107d8383611053565b9150826002028217905092915050565b611096826109f2565b67ffffffffffffffff8111156110af576110ae610aae565b5b6110b98254610e44565b6110c4828285611000565b600060209050601f8311600181146110f757600084156110e5578287015190505b6110ef8582611071565b865550611157565b601f19841661110586610ee1565b60005b8281101561112d57848901518255600182019150602085019450602081019050611108565b8683101561114a5784890151611146601f891682611053565b8355505b6001600288020188555050505b50505050505056fea2646970667358221220c60ab47a627a5fbaf11e98c4c0e0a50682a519ddeba29d3041aec2d5bb3a951964736f6c63430008140033",
    "linkReferences": {},
    "deployedLinkReferences": {}
}